{
  "contractName": "AgroModel",
  "abi": [
    {
      "constant": true,
      "inputs": [
        {
          "name": "",
          "type": "uint256"
        }
      ],
      "name": "certifingUsers",
      "outputs": [
        {
          "name": "",
          "type": "address"
        }
      ],
      "payable": false,
      "stateMutability": "view",
      "type": "function"
    },
    {
      "constant": true,
      "inputs": [
        {
          "name": "",
          "type": "uint256"
        }
      ],
      "name": "productVersionIds",
      "outputs": [
        {
          "name": "",
          "type": "bytes32"
        }
      ],
      "payable": false,
      "stateMutability": "view",
      "type": "function"
    },
    {
      "constant": true,
      "inputs": [],
      "name": "actorsCount",
      "outputs": [
        {
          "name": "",
          "type": "uint256"
        }
      ],
      "payable": false,
      "stateMutability": "view",
      "type": "function"
    },
    {
      "constant": true,
      "inputs": [
        {
          "name": "",
          "type": "uint256"
        }
      ],
      "name": "certificationIds",
      "outputs": [
        {
          "name": "",
          "type": "bytes32"
        }
      ],
      "payable": false,
      "stateMutability": "view",
      "type": "function"
    },
    {
      "constant": true,
      "inputs": [
        {
          "name": "",
          "type": "address"
        }
      ],
      "name": "actorAddressToActorStruct",
      "outputs": [
        {
          "name": "actorId",
          "type": "bytes32"
        },
        {
          "name": "name",
          "type": "string"
        },
        {
          "name": "role",
          "type": "string"
        },
        {
          "name": "accountAddress",
          "type": "address"
        },
        {
          "name": "physicalAddress",
          "type": "string"
        }
      ],
      "payable": false,
      "stateMutability": "view",
      "type": "function"
    },
    {
      "constant": true,
      "inputs": [
        {
          "name": "",
          "type": "bytes32"
        }
      ],
      "name": "productIdToProductStruct",
      "outputs": [
        {
          "name": "productId",
          "type": "bytes32"
        },
        {
          "name": "latestVersionId",
          "type": "bytes32"
        },
        {
          "name": "owner",
          "type": "address"
        },
        {
          "name": "name",
          "type": "string"
        },
        {
          "name": "description",
          "type": "string"
        }
      ],
      "payable": false,
      "stateMutability": "view",
      "type": "function"
    },
    {
      "constant": true,
      "inputs": [
        {
          "name": "",
          "type": "address"
        }
      ],
      "name": "ownerToProductsCount",
      "outputs": [
        {
          "name": "",
          "type": "uint256"
        }
      ],
      "payable": false,
      "stateMutability": "view",
      "type": "function"
    },
    {
      "constant": true,
      "inputs": [
        {
          "name": "",
          "type": "bytes32"
        }
      ],
      "name": "certificationIdToCertificationStruct",
      "outputs": [
        {
          "name": "certificationId",
          "type": "bytes32"
        },
        {
          "name": "name",
          "type": "string"
        },
        {
          "name": "imageUrl",
          "type": "string"
        }
      ],
      "payable": false,
      "stateMutability": "view",
      "type": "function"
    },
    {
      "constant": true,
      "inputs": [
        {
          "name": "",
          "type": "bytes32"
        }
      ],
      "name": "versionIdToVersionStruct",
      "outputs": [
        {
          "name": "versionId",
          "type": "bytes32"
        },
        {
          "name": "previousVersionId",
          "type": "bytes32"
        },
        {
          "name": "creationDate",
          "type": "uint256"
        },
        {
          "name": "owner",
          "type": "address"
        },
        {
          "name": "latitude",
          "type": "string"
        },
        {
          "name": "longitude",
          "type": "string"
        },
        {
          "name": "customJsonData",
          "type": "string"
        }
      ],
      "payable": false,
      "stateMutability": "view",
      "type": "function"
    },
    {
      "constant": true,
      "inputs": [
        {
          "name": "",
          "type": "uint256"
        }
      ],
      "name": "actorAddresses",
      "outputs": [
        {
          "name": "",
          "type": "address"
        }
      ],
      "payable": false,
      "stateMutability": "view",
      "type": "function"
    },
    {
      "constant": true,
      "inputs": [],
      "name": "godUser",
      "outputs": [
        {
          "name": "",
          "type": "address"
        }
      ],
      "payable": false,
      "stateMutability": "view",
      "type": "function"
    },
    {
      "constant": true,
      "inputs": [
        {
          "name": "",
          "type": "uint256"
        }
      ],
      "name": "productIds",
      "outputs": [
        {
          "name": "",
          "type": "bytes32"
        }
      ],
      "payable": false,
      "stateMutability": "view",
      "type": "function"
    },
    {
      "constant": true,
      "inputs": [
        {
          "name": "",
          "type": "address"
        },
        {
          "name": "",
          "type": "uint256"
        }
      ],
      "name": "ownerToProductsId",
      "outputs": [
        {
          "name": "",
          "type": "bytes32"
        }
      ],
      "payable": false,
      "stateMutability": "view",
      "type": "function"
    },
    {
      "constant": true,
      "inputs": [],
      "name": "productsCount",
      "outputs": [
        {
          "name": "",
          "type": "uint256"
        }
      ],
      "payable": false,
      "stateMutability": "view",
      "type": "function"
    },
    {
      "anonymous": false,
      "inputs": [
        {
          "indexed": false,
          "name": "newProductId",
          "type": "bytes32"
        },
        {
          "indexed": true,
          "name": "owner",
          "type": "address"
        }
      ],
      "name": "ProductCreated",
      "type": "event"
    },
    {
      "anonymous": false,
      "inputs": [
        {
          "indexed": false,
          "name": "newActorId",
          "type": "bytes32"
        },
        {
          "indexed": true,
          "name": "owner",
          "type": "address"
        }
      ],
      "name": "ActorCreated",
      "type": "event"
    },
    {
      "constant": false,
      "inputs": [
        {
          "name": "_name",
          "type": "string"
        },
        {
          "name": "_description",
          "type": "string"
        }
      ],
      "name": "createProduct",
      "outputs": [
        {
          "name": "productId",
          "type": "bytes32"
        }
      ],
      "payable": false,
      "stateMutability": "nonpayable",
      "type": "function"
    },
    {
      "constant": false,
      "inputs": [
        {
          "name": "_name",
          "type": "string"
        },
        {
          "name": "_role",
          "type": "string"
        }
      ],
      "name": "createActor",
      "outputs": [
        {
          "name": "actorId",
          "type": "bytes32"
        }
      ],
      "payable": false,
      "stateMutability": "nonpayable",
      "type": "function"
    }
  ],
  "bytecode": "0x608060405234801561001057600080fd5b50611be9806100206000396000f3fe608060405234801561001057600080fd5b50600436106101005760003560e01c8063860af69911610097578063a25a8a7e11610066578063a25a8a7e14610bab578063cb51bba914610bf5578063db2b9f1814610c37578063e0df7bb614610c9957610100565b8063860af699146106f657806387592bce14610810578063876359e4146109765780639482300a14610b3d57610100565b80634a901111116100d35780634a9011111461021557806353c78a94146103e457806364aa3a481461054a57806384ec14511461069e57610100565b80630ebb2821146101055780630f42435b146101735780631381c84e146101b5578063395c2111146101d3575b600080fd5b6101316004803603602081101561011b57600080fd5b8101908080359060200190929190505050610cb7565b604051808273ffffffffffffffffffffffffffffffffffffffff1673ffffffffffffffffffffffffffffffffffffffff16815260200191505060405180910390f35b61019f6004803603602081101561018957600080fd5b8101908080359060200190929190505050610cf3565b6040518082815260200191505060405180910390f35b6101bd610d14565b6040518082815260200191505060405180910390f35b6101ff600480360360208110156101e957600080fd5b8101908080359060200190929190505050610d1a565b6040518082815260200191505060405180910390f35b6102576004803603602081101561022b57600080fd5b81019080803573ffffffffffffffffffffffffffffffffffffffff169060200190929190505050610d3b565b6040518086815260200180602001806020018573ffffffffffffffffffffffffffffffffffffffff1673ffffffffffffffffffffffffffffffffffffffff16815260200180602001848103845288818151815260200191508051906020019080838360005b838110156102d75780820151818401526020810190506102bc565b50505050905090810190601f1680156103045780820380516001836020036101000a031916815260200191505b50848103835287818151815260200191508051906020019080838360005b8381101561033d578082015181840152602081019050610322565b50505050905090810190601f16801561036a5780820380516001836020036101000a031916815260200191505b50848103825285818151815260200191508051906020019080838360005b838110156103a3578082015181840152602081019050610388565b50505050905090810190601f1680156103d05780820380516001836020036101000a031916815260200191505b509850505050505050505060405180910390f35b610534600480360360408110156103fa57600080fd5b810190808035906020019064010000000081111561041757600080fd5b82018360208201111561042957600080fd5b8035906020019184600183028401116401000000008311171561044b57600080fd5b91908080601f016020809104026020016040519081016040528093929190818152602001838380828437600081840152601f19601f820116905080830192505050505050509192919290803590602001906401000000008111156104ae57600080fd5b8201836020820111156104c057600080fd5b803590602001918460018302840111640100000000831117156104e257600080fd5b91908080601f016020809104026020016040519081016040528093929190818152602001838380828437600081840152601f19601f820116905080830192505050505050509192919290505050610f59565b6040518082815260200191505060405180910390f35b6105766004803603602081101561056057600080fd5b81019080803590602001909291905050506111c2565b604051808681526020018581526020018473ffffffffffffffffffffffffffffffffffffffff1673ffffffffffffffffffffffffffffffffffffffff1681526020018060200180602001838103835285818151815260200191508051906020019080838360005b838110156105f85780820151818401526020810190506105dd565b50505050905090810190601f1680156106255780820380516001836020036101000a031916815260200191505b50838103825284818151815260200191508051906020019080838360005b8381101561065e578082015181840152602081019050610643565b50505050905090810190601f16801561068b5780820380516001836020036101000a031916815260200191505b5097505050505050505060405180910390f35b6106e0600480360360208110156106b457600080fd5b81019080803573ffffffffffffffffffffffffffffffffffffffff169060200190929190505050611348565b6040518082815260200191505060405180910390f35b6107226004803603602081101561070c57600080fd5b8101908080359060200190929190505050611360565b604051808481526020018060200180602001838103835285818151815260200191508051906020019080838360005b8381101561076c578082015181840152602081019050610751565b50505050905090810190601f1680156107995780820380516001836020036101000a031916815260200191505b50838103825284818151815260200191508051906020019080838360005b838110156107d25780820151818401526020810190506107b7565b50505050905090810190601f1680156107ff5780820380516001836020036101000a031916815260200191505b509550505050505060405180910390f35b6109606004803603604081101561082657600080fd5b810190808035906020019064010000000081111561084357600080fd5b82018360208201111561085557600080fd5b8035906020019184600183028401116401000000008311171561087757600080fd5b91908080601f016020809104026020016040519081016040528093929190818152602001838380828437600081840152601f19601f820116905080830192505050505050509192919290803590602001906401000000008111156108da57600080fd5b8201836020820111156108ec57600080fd5b8035906020019184600183028401116401000000008311171561090e57600080fd5b91908080601f016020809104026020016040519081016040528093929190818152602001838380828437600081840152601f19601f8201169050808301925050505050505091929192905050506114ba565b6040518082815260200191505060405180910390f35b6109a26004803603602081101561098c57600080fd5b81019080803590602001909291905050506117c5565b604051808881526020018781526020018681526020018573ffffffffffffffffffffffffffffffffffffffff1673ffffffffffffffffffffffffffffffffffffffff168152602001806020018060200180602001848103845287818151815260200191508051906020019080838360005b83811015610a2e578082015181840152602081019050610a13565b50505050905090810190601f168015610a5b5780820380516001836020036101000a031916815260200191505b50848103835286818151815260200191508051906020019080838360005b83811015610a94578082015181840152602081019050610a79565b50505050905090810190601f168015610ac15780820380516001836020036101000a031916815260200191505b50848103825285818151815260200191508051906020019080838360005b83811015610afa578082015181840152602081019050610adf565b50505050905090810190601f168015610b275780820380516001836020036101000a031916815260200191505b509a505050505050505050505060405180910390f35b610b6960048036036020811015610b5357600080fd5b81019080803590602001909291905050506119ef565b604051808273ffffffffffffffffffffffffffffffffffffffff1673ffffffffffffffffffffffffffffffffffffffff16815260200191505060405180910390f35b610bb3611a2b565b604051808273ffffffffffffffffffffffffffffffffffffffff1673ffffffffffffffffffffffffffffffffffffffff16815260200191505060405180910390f35b610c2160048036036020811015610c0b57600080fd5b8101908080359060200190929190505050611a51565b6040518082815260200191505060405180910390f35b610c8360048036036040811015610c4d57600080fd5b81019080803573ffffffffffffffffffffffffffffffffffffffff16906020019092919080359060200190929190505050611a72565b6040518082815260200191505060405180910390f35b610ca1611aa0565b6040518082815260200191505060405180910390f35b600d8181548110610cc457fe5b906000526020600020016000915054906101000a900473ffffffffffffffffffffffffffffffffffffffff1681565b60048181548110610d0057fe5b906000526020600020016000915090505481565b60095481565b600b8181548110610d2757fe5b906000526020600020016000915090505481565b6007602052806000526040600020600091509050806000015490806001018054600181600116156101000203166002900480601f016020809104026020016040519081016040528092919081815260200182805460018160011615610100020316600290048015610ded5780601f10610dc257610100808354040283529160200191610ded565b820191906000526020600020905b815481529060010190602001808311610dd057829003601f168201915b505050505090806002018054600181600116156101000203166002900480601f016020809104026020016040519081016040528092919081815260200182805460018160011615610100020316600290048015610e8b5780601f10610e6057610100808354040283529160200191610e8b565b820191906000526020600020905b815481529060010190602001808311610e6e57829003601f168201915b5050505050908060030160009054906101000a900473ffffffffffffffffffffffffffffffffffffffff1690806004018054600181600116156101000203166002900480601f016020809104026020016040519081016040528092919081815260200182805460018160011615610100020316600290048015610f4f5780601f10610f2457610100808354040283529160200191610f4f565b820191906000526020600020905b815481529060010190602001808311610f3257829003601f168201915b5050505050905085565b6000804233604051602001808381526020018273ffffffffffffffffffffffffffffffffffffffff1673ffffffffffffffffffffffffffffffffffffffff1660601b8152601401925050506040516020818303038152906040528051906020012090506040518060a001604052808281526020018581526020018481526020013373ffffffffffffffffffffffffffffffffffffffff16815260200160405180602001604052806000815250815250600760003373ffffffffffffffffffffffffffffffffffffffff1673ffffffffffffffffffffffffffffffffffffffff16815260200190815260200160002060008201518160000155602082015181600101908051906020019061106d929190611aa6565b50604082015181600201908051906020019061108a929190611aa6565b5060608201518160030160006101000a81548173ffffffffffffffffffffffffffffffffffffffff021916908373ffffffffffffffffffffffffffffffffffffffff16021790555060808201518160040190805190602001906110ee929190611aa6565b5090505060083390806001815401808255809150509060018203906000526020600020016000909192909190916101000a81548173ffffffffffffffffffffffffffffffffffffffff021916908373ffffffffffffffffffffffffffffffffffffffff160217905550506009600081548092919060010191905055503373ffffffffffffffffffffffffffffffffffffffff167f0317ff340049ed6f79e9bf24ef5d992eb4918b5ed5cc9dd9d0534926e640976a826040518082815260200191505060405180910390a28091505092915050565b60006020528060005260406000206000915090508060000154908060010154908060030160009054906101000a900473ffffffffffffffffffffffffffffffffffffffff1690806004018054600181600116156101000203166002900480601f0160208091040260200160405190810160405280929190818152602001828054600181600116156101000203166002900480156112a05780601f10611275576101008083540402835291602001916112a0565b820191906000526020600020905b81548152906001019060200180831161128357829003601f168201915b505050505090806005018054600181600116156101000203166002900480601f01602080910402602001604051908101604052809291908181526020018280546001816001161561010002031660029004801561133e5780601f106113135761010080835404028352916020019161133e565b820191906000526020600020905b81548152906001019060200180831161132157829003601f168201915b5050505050905085565b60066020528060005260406000206000915090505481565b600a602052806000526040600020600091509050806000015490806001018054600181600116156101000203166002900480601f0160208091040260200160405190810160405280929190818152602001828054600181600116156101000203166002900480156114125780601f106113e757610100808354040283529160200191611412565b820191906000526020600020905b8154815290600101906020018083116113f557829003601f168201915b505050505090806002018054600181600116156101000203166002900480601f0160208091040260200160405190810160405280929190818152602001828054600181600116156101000203166002900480156114b05780601f10611485576101008083540402835291602001916114b0565b820191906000526020600020905b81548152906001019060200180831161149357829003601f168201915b5050505050905083565b6000804233604051602001808381526020018273ffffffffffffffffffffffffffffffffffffffff1673ffffffffffffffffffffffffffffffffffffffff1660601b8152601401925050506040516020818303038152906040528051906020012090506040518060c001604052808281526020017f3000000000000000000000000000000000000000000000000000000000000000815260200160006040519080825280602002602001820160405280156115845781602001602082028038833980820191505090505b5081526020013373ffffffffffffffffffffffffffffffffffffffff16815260200185815260200184815250600080838152602001908152602001600020600082015181600001556020820151816001015560408201518160020190805190602001906115f2929190611b26565b5060608201518160030160006101000a81548173ffffffffffffffffffffffffffffffffffffffff021916908373ffffffffffffffffffffffffffffffffffffffff1602179055506080820151816004019080519060200190611656929190611aa6565b5060a0820151816005019080519060200190611673929190611aa6565b509050506001819080600181540180825580915050906001820390600052602060002001600090919290919091505550600560003373ffffffffffffffffffffffffffffffffffffffff1673ffffffffffffffffffffffffffffffffffffffff168152602001908152602001600020819080600181540180825580915050906001820390600052602060002001600090919290919091505550600660003373ffffffffffffffffffffffffffffffffffffffff1673ffffffffffffffffffffffffffffffffffffffff168152602001908152602001600020600081548092919060010191905055506002600081548092919060010191905055503373ffffffffffffffffffffffffffffffffffffffff167f1f3cd26d22ddb1ce87773315d1a9a80f4c46a7aaf7a8d3c23827523b8976f912826040518082815260200191505060405180910390a28091505092915050565b60036020528060005260406000206000915090508060000154908060010154908060020154908060030160009054906101000a900473ffffffffffffffffffffffffffffffffffffffff1690806004018054600181600116156101000203166002900480601f0160208091040260200160405190810160405280929190818152602001828054600181600116156101000203166002900480156118a95780601f1061187e576101008083540402835291602001916118a9565b820191906000526020600020905b81548152906001019060200180831161188c57829003601f168201915b505050505090806005018054600181600116156101000203166002900480601f0160208091040260200160405190810160405280929190818152602001828054600181600116156101000203166002900480156119475780601f1061191c57610100808354040283529160200191611947565b820191906000526020600020905b81548152906001019060200180831161192a57829003601f168201915b505050505090806006018054600181600116156101000203166002900480601f0160208091040260200160405190810160405280929190818152602001828054600181600116156101000203166002900480156119e55780601f106119ba576101008083540402835291602001916119e5565b820191906000526020600020905b8154815290600101906020018083116119c857829003601f168201915b5050505050905087565b600881815481106119fc57fe5b906000526020600020016000915054906101000a900473ffffffffffffffffffffffffffffffffffffffff1681565b600c60009054906101000a900473ffffffffffffffffffffffffffffffffffffffff1681565b60018181548110611a5e57fe5b906000526020600020016000915090505481565b60056020528160005260406000208181548110611a8b57fe5b90600052602060002001600091509150505481565b60025481565b828054600181600116156101000203166002900490600052602060002090601f016020900481019282601f10611ae757805160ff1916838001178555611b15565b82800160010185558215611b15579182015b82811115611b14578251825591602001919060010190611af9565b5b509050611b229190611b73565b5090565b828054828255906000526020600020908101928215611b62579160200282015b82811115611b61578251825591602001919060010190611b46565b5b509050611b6f9190611b98565b5090565b611b9591905b80821115611b91576000816000905550600101611b79565b5090565b90565b611bba91905b80821115611bb6576000816000905550600101611b9e565b5090565b9056fea165627a7a72305820a5a50cf01f556655b2ae6d4da4e470925b64b609e665bf61c50b9476106e6a040029",
  "source": "pragma solidity ^0.5.0;\n\ncontract AgroModel {\n\n  struct Actor {\n    bytes32 actorId;\n    string name;\n    string role;\n    address accountAddress; // Ethereum address\n    string physicalAddress; // Physical address, may be separated (more costly)\n    // TODO: actor certification? ISO:9001?\n  }\n\n  struct Certification {\n        bytes32 certificationId;\n        string name;\n        string imageUrl;\n        // TODO: certification expiration date\n        //bytes32 certificationActorId; // agency/company behind the certification\n    }\n  \n  struct Product {\n    bytes32 productId;\n    bytes32 latestVersionId;\n    bytes32[] versions;\n    // bytes32[] certificationsIds;\n    \n    address owner;\n    // address nextAuthorizedOwnerAddress;\n\n    // TODO: standard product categories/descriptions\n    // TODO: allow users to set favourite categories based on their industry\n    // TODO: UPC/EAN codes, GS1 categories https://www.gs1.org/gpc/latest\n\n    string name;\n    string description;\n  }\n\n  struct ProductVersion {\n    bytes32 versionId;\n    bytes32 previousVersionId;\n    uint creationDate;\n    address owner; // used to keep track of who owned the product at that version (could be a \"bytes32 actorId\")\n    string latitude;\n    string longitude;\n    string customJsonData;\n  }\n\n\n  /***********************\n      MAPPINGS & STORAGE\n    ***********************/\n\n  mapping (bytes32 => Product) public productIdToProductStruct; // access a product struct directly from an ID\n  bytes32[] public productIds; // access all product IDs\n  uint public productsCount;\n\n  mapping (bytes32 => ProductVersion) public versionIdToVersionStruct; // access a version struct from a version ID\n  bytes32[] public productVersionIds; // access all version IDs\n\n\n  mapping (address => bytes32[]) public ownerToProductsId; // access an account's products\n  mapping (address => uint) public ownerToProductsCount; // access an account's products\n\n  mapping (address => Actor) public actorAddressToActorStruct; // access an actor struct from its Eth address\n  address[] public actorAddresses; // access all actor addresses\n  uint public actorsCount;\n\n  mapping (bytes32 => Certification) public certificationIdToCertificationStruct; // access a version struct from a version ID\n  bytes32[] public certificationIds; // access all version IDs\n\n  // TODO: list of god accounts (mapping? array?)\n  address public godUser;\n  address[] public certifingUsers;\n\n\n  // TODO: handle certifying actors' addresses\n  // (see https://etherscan.io/address/0x06012c8cf97bead5deae237070f9587f8e7a266d#code)\n  mapping (address => bytes32[]) certifiersAddressToCertificationIds; // Certifing Actors to their certifications IDs\n\n\n  /***********************\n      FUNCTIONS\n    ***********************/\n\n\n  function createProduct(\n      string memory _name,\n      string memory _description\n      // string _latitude,\n      // string _longitude,\n      // bytes32[] _certificationsIds,\n      // string _customJsonData\n    ) public returns (bytes32 productId) {\n\n\n        // require(true, Something bad happened);\n    \n        // Generate a pseudo-random product ID\n        // from the current time and the sender's address\n        bytes32 newProductId = keccak256(abi.encodePacked(now, msg.sender));\n\n        // Create product\n        // var product = productIdToProductStruct[newProductId];\n\n        productIdToProductStruct[newProductId] = Product(newProductId, '0', new bytes32[](0), msg.sender, _name, _description);\n\n      \n\n        // Define product\n        // product.productId = newProductId;\n        // product.latestVersionId = \"0\"; // temporary value that gets replaced in updateProduct()\n        // product.versions = new bytes32[](0); // empty array at first\n        // product.exists = true;\n        // product.archived = false;\n        // product.owner = msg.sender;\n\n        // product.name = _name;\n        // product.description = _description;\n        // product.certificationsIds = _certificationsIds;\n\n        // Add new product ID\n        productIds.push(newProductId);\n\n        // Add product ID to account\n        ownerToProductsId[msg.sender].push(newProductId);\n\n        ownerToProductsCount[msg.sender]++;\n        \n        productsCount++;\n\n\n\n        // Create initial product version\n        // updateProduct(newProductId, _latitude, _longitude, _customJsonData);\n\n        // Fire an event to announce the creation of the product\n        emit ProductCreated(newProductId, msg.sender);\n\n        return newProductId;\n    }\n\n    event ProductCreated(bytes32 newProductId, address indexed owner);\n\n\n\n    function createActor(\n      string memory _name,\n      string memory _role\n    ) public returns (bytes32 actorId) {\n    \n        \n        bytes32 newActorId = keccak256(abi.encodePacked(now, msg.sender));\n        actorAddressToActorStruct[msg.sender] = Actor(newActorId, _name, _role, msg.sender, '');\n        actorAddresses.push(msg.sender);\n        actorsCount++;\n        emit ActorCreated(newActorId, msg.sender);\n        return newActorId;\n    }\n\n    event ActorCreated(bytes32 newActorId, address indexed owner);\n\n\n    // function actorPresent() public returns (bool) {\n    //     if (actorAddressToActorStruct[msg.sender].actorId == 0){\n    //       return false;\n    //     } else {\n    //       return true;\n    //     }\n        \n    // }\n\n\n\n\n\n\n\n\n}\n",
  "sourcePath": "/Users/khaledimran/projects/agro/contracts/AgroModel.sol",
  "compiler": {
    "name": "solc",
    "version": "0.5.8+commit.23d335f2.Emscripten.clang"
  },
  "schemaVersion": "3.0.14",
  "updatedAt": "2019-10-03T12:10:36.467Z",
  "devdoc": {
    "methods": {}
  },
  "userdoc": {
    "methods": {
      "createProduct(string,string)": {
        "notice": "********************* FUNCTIONS**********************"
      }
    }
  }
}