{
  "contractName": "AgroModel",
  "abi": [
    {
      "constant": true,
      "inputs": [
        {
          "name": "",
          "type": "uint256"
        }
      ],
      "name": "certifingUsers",
      "outputs": [
        {
          "name": "",
          "type": "address"
        }
      ],
      "payable": false,
      "stateMutability": "view",
      "type": "function"
    },
    {
      "constant": true,
      "inputs": [
        {
          "name": "",
          "type": "uint256"
        }
      ],
      "name": "productVersionIds",
      "outputs": [
        {
          "name": "",
          "type": "bytes32"
        }
      ],
      "payable": false,
      "stateMutability": "view",
      "type": "function"
    },
    {
      "constant": true,
      "inputs": [],
      "name": "actorsCount",
      "outputs": [
        {
          "name": "",
          "type": "uint256"
        }
      ],
      "payable": false,
      "stateMutability": "view",
      "type": "function"
    },
    {
      "constant": true,
      "inputs": [
        {
          "name": "",
          "type": "uint256"
        }
      ],
      "name": "certificationIds",
      "outputs": [
        {
          "name": "",
          "type": "bytes32"
        }
      ],
      "payable": false,
      "stateMutability": "view",
      "type": "function"
    },
    {
      "constant": true,
      "inputs": [
        {
          "name": "",
          "type": "address"
        }
      ],
      "name": "actorAddressToActorStruct",
      "outputs": [
        {
          "name": "actorId",
          "type": "bytes32"
        },
        {
          "name": "name",
          "type": "string"
        },
        {
          "name": "role",
          "type": "string"
        },
        {
          "name": "accountAddress",
          "type": "address"
        },
        {
          "name": "physicalAddress",
          "type": "string"
        }
      ],
      "payable": false,
      "stateMutability": "view",
      "type": "function"
    },
    {
      "constant": true,
      "inputs": [
        {
          "name": "",
          "type": "bytes32"
        }
      ],
      "name": "productIdToProductStruct",
      "outputs": [
        {
          "name": "productId",
          "type": "bytes32"
        },
        {
          "name": "latestVersionId",
          "type": "bytes32"
        },
        {
          "name": "owner",
          "type": "address"
        },
        {
          "name": "name",
          "type": "string"
        },
        {
          "name": "description",
          "type": "string"
        }
      ],
      "payable": false,
      "stateMutability": "view",
      "type": "function"
    },
    {
      "constant": true,
      "inputs": [
        {
          "name": "",
          "type": "bytes32"
        }
      ],
      "name": "certificationIdToCertificationStruct",
      "outputs": [
        {
          "name": "certificationId",
          "type": "bytes32"
        },
        {
          "name": "name",
          "type": "string"
        },
        {
          "name": "imageUrl",
          "type": "string"
        }
      ],
      "payable": false,
      "stateMutability": "view",
      "type": "function"
    },
    {
      "constant": true,
      "inputs": [
        {
          "name": "",
          "type": "bytes32"
        }
      ],
      "name": "versionIdToVersionStruct",
      "outputs": [
        {
          "name": "versionId",
          "type": "bytes32"
        },
        {
          "name": "previousVersionId",
          "type": "bytes32"
        },
        {
          "name": "creationDate",
          "type": "uint256"
        },
        {
          "name": "owner",
          "type": "address"
        },
        {
          "name": "latitude",
          "type": "string"
        },
        {
          "name": "longitude",
          "type": "string"
        },
        {
          "name": "customJsonData",
          "type": "string"
        }
      ],
      "payable": false,
      "stateMutability": "view",
      "type": "function"
    },
    {
      "constant": true,
      "inputs": [
        {
          "name": "",
          "type": "uint256"
        }
      ],
      "name": "actorAddresses",
      "outputs": [
        {
          "name": "",
          "type": "address"
        }
      ],
      "payable": false,
      "stateMutability": "view",
      "type": "function"
    },
    {
      "constant": true,
      "inputs": [],
      "name": "godUser",
      "outputs": [
        {
          "name": "",
          "type": "address"
        }
      ],
      "payable": false,
      "stateMutability": "view",
      "type": "function"
    },
    {
      "constant": true,
      "inputs": [
        {
          "name": "",
          "type": "uint256"
        }
      ],
      "name": "productIds",
      "outputs": [
        {
          "name": "",
          "type": "bytes32"
        }
      ],
      "payable": false,
      "stateMutability": "view",
      "type": "function"
    },
    {
      "constant": true,
      "inputs": [
        {
          "name": "",
          "type": "address"
        },
        {
          "name": "",
          "type": "uint256"
        }
      ],
      "name": "ownerToProductsId",
      "outputs": [
        {
          "name": "",
          "type": "bytes32"
        }
      ],
      "payable": false,
      "stateMutability": "view",
      "type": "function"
    },
    {
      "constant": true,
      "inputs": [],
      "name": "productsCount",
      "outputs": [
        {
          "name": "",
          "type": "uint256"
        }
      ],
      "payable": false,
      "stateMutability": "view",
      "type": "function"
    },
    {
      "anonymous": false,
      "inputs": [
        {
          "indexed": false,
          "name": "newProductId",
          "type": "bytes32"
        },
        {
          "indexed": true,
          "name": "owner",
          "type": "address"
        }
      ],
      "name": "ProductCreated",
      "type": "event"
    },
    {
      "anonymous": false,
      "inputs": [
        {
          "indexed": false,
          "name": "newActorId",
          "type": "bytes32"
        },
        {
          "indexed": true,
          "name": "owner",
          "type": "address"
        }
      ],
      "name": "ActorCreated",
      "type": "event"
    },
    {
      "constant": false,
      "inputs": [
        {
          "name": "_name",
          "type": "string"
        },
        {
          "name": "_description",
          "type": "string"
        }
      ],
      "name": "createProduct",
      "outputs": [
        {
          "name": "productId",
          "type": "bytes32"
        }
      ],
      "payable": false,
      "stateMutability": "nonpayable",
      "type": "function"
    },
    {
      "constant": false,
      "inputs": [
        {
          "name": "_name",
          "type": "string"
        },
        {
          "name": "_role",
          "type": "string"
        }
      ],
      "name": "createActor",
      "outputs": [
        {
          "name": "actorId",
          "type": "bytes32"
        }
      ],
      "payable": false,
      "stateMutability": "nonpayable",
      "type": "function"
    }
  ],
  "bytecode": "0x608060405234801561001057600080fd5b50611b1f806100206000396000f3fe608060405234801561001057600080fd5b50600436106100f55760003560e01c8063860af69911610097578063a25a8a7e11610066578063a25a8a7e14610b48578063cb51bba914610b92578063db2b9f1814610bd4578063e0df7bb614610c36576100f5565b8063860af6991461069357806387592bce146107ad578063876359e4146109135780639482300a14610ada576100f5565b8063395c2111116100d3578063395c2111146101c85780634a9011111461020a57806353c78a94146103d957806364aa3a481461053f576100f5565b80630ebb2821146100fa5780630f42435b146101685780631381c84e146101aa575b600080fd5b6101266004803603602081101561011057600080fd5b8101908080359060200190929190505050610c54565b604051808273ffffffffffffffffffffffffffffffffffffffff1673ffffffffffffffffffffffffffffffffffffffff16815260200191505060405180910390f35b6101946004803603602081101561017e57600080fd5b8101908080359060200190929190505050610c90565b6040518082815260200191505060405180910390f35b6101b2610cb1565b6040518082815260200191505060405180910390f35b6101f4600480360360208110156101de57600080fd5b8101908080359060200190929190505050610cb7565b6040518082815260200191505060405180910390f35b61024c6004803603602081101561022057600080fd5b81019080803573ffffffffffffffffffffffffffffffffffffffff169060200190929190505050610cd8565b6040518086815260200180602001806020018573ffffffffffffffffffffffffffffffffffffffff1673ffffffffffffffffffffffffffffffffffffffff16815260200180602001848103845288818151815260200191508051906020019080838360005b838110156102cc5780820151818401526020810190506102b1565b50505050905090810190601f1680156102f95780820380516001836020036101000a031916815260200191505b50848103835287818151815260200191508051906020019080838360005b83811015610332578082015181840152602081019050610317565b50505050905090810190601f16801561035f5780820380516001836020036101000a031916815260200191505b50848103825285818151815260200191508051906020019080838360005b8381101561039857808201518184015260208101905061037d565b50505050905090810190601f1680156103c55780820380516001836020036101000a031916815260200191505b509850505050505050505060405180910390f35b610529600480360360408110156103ef57600080fd5b810190808035906020019064010000000081111561040c57600080fd5b82018360208201111561041e57600080fd5b8035906020019184600183028401116401000000008311171561044057600080fd5b91908080601f016020809104026020016040519081016040528093929190818152602001838380828437600081840152601f19601f820116905080830192505050505050509192919290803590602001906401000000008111156104a357600080fd5b8201836020820111156104b557600080fd5b803590602001918460018302840111640100000000831117156104d757600080fd5b91908080601f016020809104026020016040519081016040528093929190818152602001838380828437600081840152601f19601f820116905080830192505050505050509192919290505050610ef6565b6040518082815260200191505060405180910390f35b61056b6004803603602081101561055557600080fd5b810190808035906020019092919050505061115f565b604051808681526020018581526020018473ffffffffffffffffffffffffffffffffffffffff1673ffffffffffffffffffffffffffffffffffffffff1681526020018060200180602001838103835285818151815260200191508051906020019080838360005b838110156105ed5780820151818401526020810190506105d2565b50505050905090810190601f16801561061a5780820380516001836020036101000a031916815260200191505b50838103825284818151815260200191508051906020019080838360005b83811015610653578082015181840152602081019050610638565b50505050905090810190601f1680156106805780820380516001836020036101000a031916815260200191505b5097505050505050505060405180910390f35b6106bf600480360360208110156106a957600080fd5b81019080803590602001909291905050506112e5565b604051808481526020018060200180602001838103835285818151815260200191508051906020019080838360005b838110156107095780820151818401526020810190506106ee565b50505050905090810190601f1680156107365780820380516001836020036101000a031916815260200191505b50838103825284818151815260200191508051906020019080838360005b8381101561076f578082015181840152602081019050610754565b50505050905090810190601f16801561079c5780820380516001836020036101000a031916815260200191505b509550505050505060405180910390f35b6108fd600480360360408110156107c357600080fd5b81019080803590602001906401000000008111156107e057600080fd5b8201836020820111156107f257600080fd5b8035906020019184600183028401116401000000008311171561081457600080fd5b91908080601f016020809104026020016040519081016040528093929190818152602001838380828437600081840152601f19601f8201169050808301925050505050505091929192908035906020019064010000000081111561087757600080fd5b82018360208201111561088957600080fd5b803590602001918460018302840111640100000000831117156108ab57600080fd5b91908080601f016020809104026020016040519081016040528093929190818152602001838380828437600081840152601f19601f82011690508083019250505050505050919291929050505061143f565b6040518082815260200191505060405180910390f35b61093f6004803603602081101561092957600080fd5b81019080803590602001909291905050506116fb565b604051808881526020018781526020018681526020018573ffffffffffffffffffffffffffffffffffffffff1673ffffffffffffffffffffffffffffffffffffffff168152602001806020018060200180602001848103845287818151815260200191508051906020019080838360005b838110156109cb5780820151818401526020810190506109b0565b50505050905090810190601f1680156109f85780820380516001836020036101000a031916815260200191505b50848103835286818151815260200191508051906020019080838360005b83811015610a31578082015181840152602081019050610a16565b50505050905090810190601f168015610a5e5780820380516001836020036101000a031916815260200191505b50848103825285818151815260200191508051906020019080838360005b83811015610a97578082015181840152602081019050610a7c565b50505050905090810190601f168015610ac45780820380516001836020036101000a031916815260200191505b509a505050505050505050505060405180910390f35b610b0660048036036020811015610af057600080fd5b8101908080359060200190929190505050611925565b604051808273ffffffffffffffffffffffffffffffffffffffff1673ffffffffffffffffffffffffffffffffffffffff16815260200191505060405180910390f35b610b50611961565b604051808273ffffffffffffffffffffffffffffffffffffffff1673ffffffffffffffffffffffffffffffffffffffff16815260200191505060405180910390f35b610bbe60048036036020811015610ba857600080fd5b8101908080359060200190929190505050611987565b6040518082815260200191505060405180910390f35b610c2060048036036040811015610bea57600080fd5b81019080803573ffffffffffffffffffffffffffffffffffffffff169060200190929190803590602001909291905050506119a8565b6040518082815260200191505060405180910390f35b610c3e6119d6565b6040518082815260200191505060405180910390f35b600c8181548110610c6157fe5b906000526020600020016000915054906101000a900473ffffffffffffffffffffffffffffffffffffffff1681565b60048181548110610c9d57fe5b906000526020600020016000915090505481565b60085481565b600a8181548110610cc457fe5b906000526020600020016000915090505481565b6006602052806000526040600020600091509050806000015490806001018054600181600116156101000203166002900480601f016020809104026020016040519081016040528092919081815260200182805460018160011615610100020316600290048015610d8a5780601f10610d5f57610100808354040283529160200191610d8a565b820191906000526020600020905b815481529060010190602001808311610d6d57829003601f168201915b505050505090806002018054600181600116156101000203166002900480601f016020809104026020016040519081016040528092919081815260200182805460018160011615610100020316600290048015610e285780601f10610dfd57610100808354040283529160200191610e28565b820191906000526020600020905b815481529060010190602001808311610e0b57829003601f168201915b5050505050908060030160009054906101000a900473ffffffffffffffffffffffffffffffffffffffff1690806004018054600181600116156101000203166002900480601f016020809104026020016040519081016040528092919081815260200182805460018160011615610100020316600290048015610eec5780601f10610ec157610100808354040283529160200191610eec565b820191906000526020600020905b815481529060010190602001808311610ecf57829003601f168201915b5050505050905085565b6000804233604051602001808381526020018273ffffffffffffffffffffffffffffffffffffffff1673ffffffffffffffffffffffffffffffffffffffff1660601b8152601401925050506040516020818303038152906040528051906020012090506040518060a001604052808281526020018581526020018481526020013373ffffffffffffffffffffffffffffffffffffffff16815260200160405180602001604052806000815250815250600660003373ffffffffffffffffffffffffffffffffffffffff1673ffffffffffffffffffffffffffffffffffffffff16815260200190815260200160002060008201518160000155602082015181600101908051906020019061100a9291906119dc565b5060408201518160020190805190602001906110279291906119dc565b5060608201518160030160006101000a81548173ffffffffffffffffffffffffffffffffffffffff021916908373ffffffffffffffffffffffffffffffffffffffff160217905550608082015181600401908051906020019061108b9291906119dc565b5090505060073390806001815401808255809150509060018203906000526020600020016000909192909190916101000a81548173ffffffffffffffffffffffffffffffffffffffff021916908373ffffffffffffffffffffffffffffffffffffffff160217905550506008600081548092919060010191905055503373ffffffffffffffffffffffffffffffffffffffff167f0317ff340049ed6f79e9bf24ef5d992eb4918b5ed5cc9dd9d0534926e640976a826040518082815260200191505060405180910390a28091505092915050565b60006020528060005260406000206000915090508060000154908060010154908060030160009054906101000a900473ffffffffffffffffffffffffffffffffffffffff1690806004018054600181600116156101000203166002900480601f01602080910402602001604051908101604052809291908181526020018280546001816001161561010002031660029004801561123d5780601f106112125761010080835404028352916020019161123d565b820191906000526020600020905b81548152906001019060200180831161122057829003601f168201915b505050505090806005018054600181600116156101000203166002900480601f0160208091040260200160405190810160405280929190818152602001828054600181600116156101000203166002900480156112db5780601f106112b0576101008083540402835291602001916112db565b820191906000526020600020905b8154815290600101906020018083116112be57829003601f168201915b5050505050905085565b6009602052806000526040600020600091509050806000015490806001018054600181600116156101000203166002900480601f0160208091040260200160405190810160405280929190818152602001828054600181600116156101000203166002900480156113975780601f1061136c57610100808354040283529160200191611397565b820191906000526020600020905b81548152906001019060200180831161137a57829003601f168201915b505050505090806002018054600181600116156101000203166002900480601f0160208091040260200160405190810160405280929190818152602001828054600181600116156101000203166002900480156114355780601f1061140a57610100808354040283529160200191611435565b820191906000526020600020905b81548152906001019060200180831161141857829003601f168201915b5050505050905083565b6000804233604051602001808381526020018273ffffffffffffffffffffffffffffffffffffffff1673ffffffffffffffffffffffffffffffffffffffff1660601b8152601401925050506040516020818303038152906040528051906020012090506040518060c001604052808281526020017f3000000000000000000000000000000000000000000000000000000000000000815260200160006040519080825280602002602001820160405280156115095781602001602082028038833980820191505090505b5081526020013373ffffffffffffffffffffffffffffffffffffffff1681526020018581526020018481525060008083815260200190815260200160002060008201518160000155602082015181600101556040820151816002019080519060200190611577929190611a5c565b5060608201518160030160006101000a81548173ffffffffffffffffffffffffffffffffffffffff021916908373ffffffffffffffffffffffffffffffffffffffff16021790555060808201518160040190805190602001906115db9291906119dc565b5060a08201518160050190805190602001906115f89291906119dc565b509050506001819080600181540180825580915050906001820390600052602060002001600090919290919091505550600560003373ffffffffffffffffffffffffffffffffffffffff1673ffffffffffffffffffffffffffffffffffffffff1681526020019081526020016000208190806001815401808255809150509060018203906000526020600020016000909192909190915055506002600081548092919060010191905055503373ffffffffffffffffffffffffffffffffffffffff167f1f3cd26d22ddb1ce87773315d1a9a80f4c46a7aaf7a8d3c23827523b8976f912826040518082815260200191505060405180910390a28091505092915050565b60036020528060005260406000206000915090508060000154908060010154908060020154908060030160009054906101000a900473ffffffffffffffffffffffffffffffffffffffff1690806004018054600181600116156101000203166002900480601f0160208091040260200160405190810160405280929190818152602001828054600181600116156101000203166002900480156117df5780601f106117b4576101008083540402835291602001916117df565b820191906000526020600020905b8154815290600101906020018083116117c257829003601f168201915b505050505090806005018054600181600116156101000203166002900480601f01602080910402602001604051908101604052809291908181526020018280546001816001161561010002031660029004801561187d5780601f106118525761010080835404028352916020019161187d565b820191906000526020600020905b81548152906001019060200180831161186057829003601f168201915b505050505090806006018054600181600116156101000203166002900480601f01602080910402602001604051908101604052809291908181526020018280546001816001161561010002031660029004801561191b5780601f106118f05761010080835404028352916020019161191b565b820191906000526020600020905b8154815290600101906020018083116118fe57829003601f168201915b5050505050905087565b6007818154811061193257fe5b906000526020600020016000915054906101000a900473ffffffffffffffffffffffffffffffffffffffff1681565b600b60009054906101000a900473ffffffffffffffffffffffffffffffffffffffff1681565b6001818154811061199457fe5b906000526020600020016000915090505481565b600560205281600052604060002081815481106119c157fe5b90600052602060002001600091509150505481565b60025481565b828054600181600116156101000203166002900490600052602060002090601f016020900481019282601f10611a1d57805160ff1916838001178555611a4b565b82800160010185558215611a4b579182015b82811115611a4a578251825591602001919060010190611a2f565b5b509050611a589190611aa9565b5090565b828054828255906000526020600020908101928215611a98579160200282015b82811115611a97578251825591602001919060010190611a7c565b5b509050611aa59190611ace565b5090565b611acb91905b80821115611ac7576000816000905550600101611aaf565b5090565b90565b611af091905b80821115611aec576000816000905550600101611ad4565b5090565b9056fea165627a7a72305820318aa90ad1e9c00a7886969047f7d09dc532407623092edebc2807f8580e16c30029",
  "source": "pragma solidity ^0.5.0;\n\ncontract AgroModel {\n\n  struct Actor {\n    bytes32 actorId;\n    string name;\n    string role;\n    address accountAddress; // Ethereum address\n    string physicalAddress; // Physical address, may be separated (more costly)\n    // TODO: actor certification? ISO:9001?\n  }\n\n  struct Certification {\n        bytes32 certificationId;\n        string name;\n        string imageUrl;\n        // TODO: certification expiration date\n        //bytes32 certificationActorId; // agency/company behind the certification\n    }\n  \n  struct Product {\n    bytes32 productId;\n    bytes32 latestVersionId;\n    bytes32[] versions;\n    // bytes32[] certificationsIds;\n    \n    address owner;\n    // address nextAuthorizedOwnerAddress;\n\n    // TODO: standard product categories/descriptions\n    // TODO: allow users to set favourite categories based on their industry\n    // TODO: UPC/EAN codes, GS1 categories https://www.gs1.org/gpc/latest\n\n    string name;\n    string description;\n  }\n\n  struct ProductVersion {\n    bytes32 versionId;\n    bytes32 previousVersionId;\n    uint creationDate;\n    address owner; // used to keep track of who owned the product at that version (could be a \"bytes32 actorId\")\n    string latitude;\n    string longitude;\n    string customJsonData;\n  }\n\n\n  /***********************\n      MAPPINGS & STORAGE\n    ***********************/\n\n  mapping (bytes32 => Product) public productIdToProductStruct; // access a product struct directly from an ID\n  bytes32[] public productIds; // access all product IDs\n  uint public productsCount;\n\n  mapping (bytes32 => ProductVersion) public versionIdToVersionStruct; // access a version struct from a version ID\n  bytes32[] public productVersionIds; // access all version IDs\n\n\n  mapping (address => bytes32[]) public ownerToProductsId; // access an account's products\n\n  mapping (address => Actor) public actorAddressToActorStruct; // access an actor struct from its Eth address\n  address[] public actorAddresses; // access all actor addresses\n  uint public actorsCount;\n\n  mapping (bytes32 => Certification) public certificationIdToCertificationStruct; // access a version struct from a version ID\n  bytes32[] public certificationIds; // access all version IDs\n\n  // TODO: list of god accounts (mapping? array?)\n  address public godUser;\n  address[] public certifingUsers;\n\n\n  // TODO: handle certifying actors' addresses\n  // (see https://etherscan.io/address/0x06012c8cf97bead5deae237070f9587f8e7a266d#code)\n  mapping (address => bytes32[]) certifiersAddressToCertificationIds; // Certifing Actors to their certifications IDs\n\n\n  /***********************\n      FUNCTIONS\n    ***********************/\n\n\n  function createProduct(\n      string memory _name,\n      string memory _description\n      // string _latitude,\n      // string _longitude,\n      // bytes32[] _certificationsIds,\n      // string _customJsonData\n    ) public returns (bytes32 productId) {\n\n\n        // require(true, Something bad happened);\n    \n        // Generate a pseudo-random product ID\n        // from the current time and the sender's address\n        bytes32 newProductId = keccak256(abi.encodePacked(now, msg.sender));\n\n        // Create product\n        // var product = productIdToProductStruct[newProductId];\n\n        productIdToProductStruct[newProductId] = Product(newProductId, '0', new bytes32[](0), msg.sender, _name, _description);\n\n      \n\n        // Define product\n        // product.productId = newProductId;\n        // product.latestVersionId = \"0\"; // temporary value that gets replaced in updateProduct()\n        // product.versions = new bytes32[](0); // empty array at first\n        // product.exists = true;\n        // product.archived = false;\n        // product.owner = msg.sender;\n\n        // product.name = _name;\n        // product.description = _description;\n        // product.certificationsIds = _certificationsIds;\n\n        // Add new product ID\n        productIds.push(newProductId);\n\n        // Add product ID to account\n        ownerToProductsId[msg.sender].push(newProductId);\n\n        productsCount++;\n\n        // Create initial product version\n        // updateProduct(newProductId, _latitude, _longitude, _customJsonData);\n\n        // Fire an event to announce the creation of the product\n        emit ProductCreated(newProductId, msg.sender);\n\n        return newProductId;\n    }\n\n    event ProductCreated(bytes32 newProductId, address indexed owner);\n\n\n\n    function createActor(\n      string memory _name,\n      string memory _role\n    ) public returns (bytes32 actorId) {\n    \n        \n        bytes32 newActorId = keccak256(abi.encodePacked(now, msg.sender));\n        actorAddressToActorStruct[msg.sender] = Actor(newActorId, _name, _role, msg.sender, '');\n        actorAddresses.push(msg.sender);\n        actorsCount++;\n        emit ActorCreated(newActorId, msg.sender);\n        return newActorId;\n    }\n\n    event ActorCreated(bytes32 newActorId, address indexed owner);\n\n\n    // function actorPresent() public returns (bool) {\n    //     if (actorAddressToActorStruct[msg.sender].actorId == 0){\n    //       return false;\n    //     } else {\n    //       return true;\n    //     }\n        \n    // }\n\n\n\n\n\n\n\n\n}\n",
  "sourcePath": "/Users/khaledimran/projects/agro/contracts/AgroModel.sol",
  "compiler": {
    "name": "solc",
    "version": "0.5.8+commit.23d335f2.Emscripten.clang"
  },
  "schemaVersion": "3.0.14",
  "updatedAt": "2019-10-03T10:41:01.899Z",
  "devdoc": {
    "methods": {}
  },
  "userdoc": {
    "methods": {
      "createProduct(string,string)": {
        "notice": "********************* FUNCTIONS**********************"
      }
    }
  }
}