{
  "contractName": "AgroModel",
  "abi": [
    {
      "constant": true,
      "inputs": [
        {
          "name": "",
          "type": "uint256"
        }
      ],
      "name": "certifingUsers",
      "outputs": [
        {
          "name": "",
          "type": "address"
        }
      ],
      "payable": false,
      "stateMutability": "view",
      "type": "function"
    },
    {
      "constant": true,
      "inputs": [
        {
          "name": "",
          "type": "uint256"
        }
      ],
      "name": "productVersionIds",
      "outputs": [
        {
          "name": "",
          "type": "bytes32"
        }
      ],
      "payable": false,
      "stateMutability": "view",
      "type": "function"
    },
    {
      "constant": true,
      "inputs": [
        {
          "name": "",
          "type": "uint256"
        }
      ],
      "name": "certificationIds",
      "outputs": [
        {
          "name": "",
          "type": "bytes32"
        }
      ],
      "payable": false,
      "stateMutability": "view",
      "type": "function"
    },
    {
      "constant": true,
      "inputs": [
        {
          "name": "",
          "type": "address"
        }
      ],
      "name": "actorAddressToActorStruct",
      "outputs": [
        {
          "name": "actorId",
          "type": "bytes32"
        },
        {
          "name": "name",
          "type": "string"
        },
        {
          "name": "accountAddress",
          "type": "address"
        },
        {
          "name": "physicalAddress",
          "type": "string"
        }
      ],
      "payable": false,
      "stateMutability": "view",
      "type": "function"
    },
    {
      "constant": true,
      "inputs": [
        {
          "name": "",
          "type": "bytes32"
        }
      ],
      "name": "productIdToProductStruct",
      "outputs": [
        {
          "name": "productId",
          "type": "bytes32"
        },
        {
          "name": "latestVersionId",
          "type": "bytes32"
        },
        {
          "name": "owner",
          "type": "address"
        },
        {
          "name": "name",
          "type": "string"
        },
        {
          "name": "description",
          "type": "string"
        }
      ],
      "payable": false,
      "stateMutability": "view",
      "type": "function"
    },
    {
      "constant": true,
      "inputs": [
        {
          "name": "",
          "type": "bytes32"
        }
      ],
      "name": "certificationIdToCertificationStruct",
      "outputs": [
        {
          "name": "certificationId",
          "type": "bytes32"
        },
        {
          "name": "name",
          "type": "string"
        },
        {
          "name": "imageUrl",
          "type": "string"
        }
      ],
      "payable": false,
      "stateMutability": "view",
      "type": "function"
    },
    {
      "constant": true,
      "inputs": [
        {
          "name": "",
          "type": "bytes32"
        }
      ],
      "name": "versionIdToVersionStruct",
      "outputs": [
        {
          "name": "versionId",
          "type": "bytes32"
        },
        {
          "name": "previousVersionId",
          "type": "bytes32"
        },
        {
          "name": "creationDate",
          "type": "uint256"
        },
        {
          "name": "owner",
          "type": "address"
        },
        {
          "name": "latitude",
          "type": "string"
        },
        {
          "name": "longitude",
          "type": "string"
        },
        {
          "name": "customJsonData",
          "type": "string"
        }
      ],
      "payable": false,
      "stateMutability": "view",
      "type": "function"
    },
    {
      "constant": true,
      "inputs": [
        {
          "name": "",
          "type": "uint256"
        }
      ],
      "name": "actorAddresses",
      "outputs": [
        {
          "name": "",
          "type": "address"
        }
      ],
      "payable": false,
      "stateMutability": "view",
      "type": "function"
    },
    {
      "constant": true,
      "inputs": [],
      "name": "godUser",
      "outputs": [
        {
          "name": "",
          "type": "address"
        }
      ],
      "payable": false,
      "stateMutability": "view",
      "type": "function"
    },
    {
      "constant": true,
      "inputs": [
        {
          "name": "",
          "type": "uint256"
        }
      ],
      "name": "productIds",
      "outputs": [
        {
          "name": "",
          "type": "bytes32"
        }
      ],
      "payable": false,
      "stateMutability": "view",
      "type": "function"
    },
    {
      "constant": true,
      "inputs": [
        {
          "name": "",
          "type": "address"
        },
        {
          "name": "",
          "type": "uint256"
        }
      ],
      "name": "ownerToProductsId",
      "outputs": [
        {
          "name": "",
          "type": "bytes32"
        }
      ],
      "payable": false,
      "stateMutability": "view",
      "type": "function"
    },
    {
      "constant": true,
      "inputs": [],
      "name": "productsCount",
      "outputs": [
        {
          "name": "",
          "type": "uint256"
        }
      ],
      "payable": false,
      "stateMutability": "view",
      "type": "function"
    },
    {
      "anonymous": false,
      "inputs": [
        {
          "indexed": false,
          "name": "newProductId",
          "type": "bytes32"
        },
        {
          "indexed": true,
          "name": "owner",
          "type": "address"
        }
      ],
      "name": "ProductCreated",
      "type": "event"
    },
    {
      "constant": false,
      "inputs": [
        {
          "name": "_name",
          "type": "string"
        },
        {
          "name": "_description",
          "type": "string"
        }
      ],
      "name": "createProduct",
      "outputs": [
        {
          "name": "productId",
          "type": "bytes32"
        }
      ],
      "payable": false,
      "stateMutability": "nonpayable",
      "type": "function"
    }
  ],
  "bytecode": "0x608060405234801561001057600080fd5b506115fc806100206000396000f3fe608060405234801561001057600080fd5b50600436106100cf5760003560e01c806387592bce1161008c578063a25a8a7e11610066578063a25a8a7e14610932578063cb51bba91461097c578063db2b9f18146109be578063e0df7bb614610a20576100cf565b806387592bce14610597578063876359e4146106fd5780639482300a146108c4576100cf565b80630ebb2821146100d45780630f42435b14610142578063395c2111146101845780634a901111146101c657806364aa3a4814610329578063860af6991461047d575b600080fd5b610100600480360360208110156100ea57600080fd5b8101908080359060200190929190505050610a3e565b604051808273ffffffffffffffffffffffffffffffffffffffff1673ffffffffffffffffffffffffffffffffffffffff16815260200191505060405180910390f35b61016e6004803603602081101561015857600080fd5b8101908080359060200190929190505050610a7a565b6040518082815260200191505060405180910390f35b6101b06004803603602081101561019a57600080fd5b8101908080359060200190929190505050610a9b565b6040518082815260200191505060405180910390f35b610208600480360360208110156101dc57600080fd5b81019080803573ffffffffffffffffffffffffffffffffffffffff169060200190929190505050610abc565b60405180858152602001806020018473ffffffffffffffffffffffffffffffffffffffff1673ffffffffffffffffffffffffffffffffffffffff16815260200180602001838103835286818151815260200191508051906020019080838360005b83811015610284578082015181840152602081019050610269565b50505050905090810190601f1680156102b15780820380516001836020036101000a031916815260200191505b50838103825284818151815260200191508051906020019080838360005b838110156102ea5780820151818401526020810190506102cf565b50505050905090810190601f1680156103175780820380516001836020036101000a031916815260200191505b50965050505050505060405180910390f35b6103556004803603602081101561033f57600080fd5b8101908080359060200190929190505050610c3c565b604051808681526020018581526020018473ffffffffffffffffffffffffffffffffffffffff1673ffffffffffffffffffffffffffffffffffffffff1681526020018060200180602001838103835285818151815260200191508051906020019080838360005b838110156103d75780820151818401526020810190506103bc565b50505050905090810190601f1680156104045780820380516001836020036101000a031916815260200191505b50838103825284818151815260200191508051906020019080838360005b8381101561043d578082015181840152602081019050610422565b50505050905090810190601f16801561046a5780820380516001836020036101000a031916815260200191505b5097505050505050505060405180910390f35b6104a96004803603602081101561049357600080fd5b8101908080359060200190929190505050610dc2565b604051808481526020018060200180602001838103835285818151815260200191508051906020019080838360005b838110156104f35780820151818401526020810190506104d8565b50505050905090810190601f1680156105205780820380516001836020036101000a031916815260200191505b50838103825284818151815260200191508051906020019080838360005b8381101561055957808201518184015260208101905061053e565b50505050905090810190601f1680156105865780820380516001836020036101000a031916815260200191505b509550505050505060405180910390f35b6106e7600480360360408110156105ad57600080fd5b81019080803590602001906401000000008111156105ca57600080fd5b8201836020820111156105dc57600080fd5b803590602001918460018302840111640100000000831117156105fe57600080fd5b91908080601f016020809104026020016040519081016040528093929190818152602001838380828437600081840152601f19601f8201169050808301925050505050505091929192908035906020019064010000000081111561066157600080fd5b82018360208201111561067357600080fd5b8035906020019184600183028401116401000000008311171561069557600080fd5b91908080601f016020809104026020016040519081016040528093929190818152602001838380828437600081840152601f19601f820116905080830192505050505050509192919290505050610f1c565b6040518082815260200191505060405180910390f35b6107296004803603602081101561071357600080fd5b81019080803590602001909291905050506111d8565b604051808881526020018781526020018681526020018573ffffffffffffffffffffffffffffffffffffffff1673ffffffffffffffffffffffffffffffffffffffff168152602001806020018060200180602001848103845287818151815260200191508051906020019080838360005b838110156107b557808201518184015260208101905061079a565b50505050905090810190601f1680156107e25780820380516001836020036101000a031916815260200191505b50848103835286818151815260200191508051906020019080838360005b8381101561081b578082015181840152602081019050610800565b50505050905090810190601f1680156108485780820380516001836020036101000a031916815260200191505b50848103825285818151815260200191508051906020019080838360005b83811015610881578082015181840152602081019050610866565b50505050905090810190601f1680156108ae5780820380516001836020036101000a031916815260200191505b509a505050505050505050505060405180910390f35b6108f0600480360360208110156108da57600080fd5b8101908080359060200190929190505050611402565b604051808273ffffffffffffffffffffffffffffffffffffffff1673ffffffffffffffffffffffffffffffffffffffff16815260200191505060405180910390f35b61093a61143e565b604051808273ffffffffffffffffffffffffffffffffffffffff1673ffffffffffffffffffffffffffffffffffffffff16815260200191505060405180910390f35b6109a86004803603602081101561099257600080fd5b8101908080359060200190929190505050611464565b6040518082815260200191505060405180910390f35b610a0a600480360360408110156109d457600080fd5b81019080803573ffffffffffffffffffffffffffffffffffffffff16906020019092919080359060200190929190505050611485565b6040518082815260200191505060405180910390f35b610a286114b3565b6040518082815260200191505060405180910390f35b600b8181548110610a4b57fe5b906000526020600020016000915054906101000a900473ffffffffffffffffffffffffffffffffffffffff1681565b60048181548110610a8757fe5b906000526020600020016000915090505481565b60098181548110610aa857fe5b906000526020600020016000915090505481565b6006602052806000526040600020600091509050806000015490806001018054600181600116156101000203166002900480601f016020809104026020016040519081016040528092919081815260200182805460018160011615610100020316600290048015610b6e5780601f10610b4357610100808354040283529160200191610b6e565b820191906000526020600020905b815481529060010190602001808311610b5157829003601f168201915b5050505050908060020160009054906101000a900473ffffffffffffffffffffffffffffffffffffffff1690806003018054600181600116156101000203166002900480601f016020809104026020016040519081016040528092919081815260200182805460018160011615610100020316600290048015610c325780601f10610c0757610100808354040283529160200191610c32565b820191906000526020600020905b815481529060010190602001808311610c1557829003601f168201915b5050505050905084565b60006020528060005260406000206000915090508060000154908060010154908060030160009054906101000a900473ffffffffffffffffffffffffffffffffffffffff1690806004018054600181600116156101000203166002900480601f016020809104026020016040519081016040528092919081815260200182805460018160011615610100020316600290048015610d1a5780601f10610cef57610100808354040283529160200191610d1a565b820191906000526020600020905b815481529060010190602001808311610cfd57829003601f168201915b505050505090806005018054600181600116156101000203166002900480601f016020809104026020016040519081016040528092919081815260200182805460018160011615610100020316600290048015610db85780601f10610d8d57610100808354040283529160200191610db8565b820191906000526020600020905b815481529060010190602001808311610d9b57829003601f168201915b5050505050905085565b6008602052806000526040600020600091509050806000015490806001018054600181600116156101000203166002900480601f016020809104026020016040519081016040528092919081815260200182805460018160011615610100020316600290048015610e745780601f10610e4957610100808354040283529160200191610e74565b820191906000526020600020905b815481529060010190602001808311610e5757829003601f168201915b505050505090806002018054600181600116156101000203166002900480601f016020809104026020016040519081016040528092919081815260200182805460018160011615610100020316600290048015610f125780601f10610ee757610100808354040283529160200191610f12565b820191906000526020600020905b815481529060010190602001808311610ef557829003601f168201915b5050505050905083565b6000804233604051602001808381526020018273ffffffffffffffffffffffffffffffffffffffff1673ffffffffffffffffffffffffffffffffffffffff1660601b8152601401925050506040516020818303038152906040528051906020012090506040518060c001604052808281526020017f300000000000000000000000000000000000000000000000000000000000000081526020016000604051908082528060200260200182016040528015610fe65781602001602082028038833980820191505090505b5081526020013373ffffffffffffffffffffffffffffffffffffffff16815260200185815260200184815250600080838152602001908152602001600020600082015181600001556020820151816001015560408201518160020190805190602001906110549291906114b9565b5060608201518160030160006101000a81548173ffffffffffffffffffffffffffffffffffffffff021916908373ffffffffffffffffffffffffffffffffffffffff16021790555060808201518160040190805190602001906110b8929190611506565b5060a08201518160050190805190602001906110d5929190611506565b509050506001819080600181540180825580915050906001820390600052602060002001600090919290919091505550600560003373ffffffffffffffffffffffffffffffffffffffff1673ffffffffffffffffffffffffffffffffffffffff1681526020019081526020016000208190806001815401808255809150509060018203906000526020600020016000909192909190915055506002600081548092919060010191905055503373ffffffffffffffffffffffffffffffffffffffff167f1f3cd26d22ddb1ce87773315d1a9a80f4c46a7aaf7a8d3c23827523b8976f912826040518082815260200191505060405180910390a28091505092915050565b60036020528060005260406000206000915090508060000154908060010154908060020154908060030160009054906101000a900473ffffffffffffffffffffffffffffffffffffffff1690806004018054600181600116156101000203166002900480601f0160208091040260200160405190810160405280929190818152602001828054600181600116156101000203166002900480156112bc5780601f10611291576101008083540402835291602001916112bc565b820191906000526020600020905b81548152906001019060200180831161129f57829003601f168201915b505050505090806005018054600181600116156101000203166002900480601f01602080910402602001604051908101604052809291908181526020018280546001816001161561010002031660029004801561135a5780601f1061132f5761010080835404028352916020019161135a565b820191906000526020600020905b81548152906001019060200180831161133d57829003601f168201915b505050505090806006018054600181600116156101000203166002900480601f0160208091040260200160405190810160405280929190818152602001828054600181600116156101000203166002900480156113f85780601f106113cd576101008083540402835291602001916113f8565b820191906000526020600020905b8154815290600101906020018083116113db57829003601f168201915b5050505050905087565b6007818154811061140f57fe5b906000526020600020016000915054906101000a900473ffffffffffffffffffffffffffffffffffffffff1681565b600a60009054906101000a900473ffffffffffffffffffffffffffffffffffffffff1681565b6001818154811061147157fe5b906000526020600020016000915090505481565b6005602052816000526040600020818154811061149e57fe5b90600052602060002001600091509150505481565b60025481565b8280548282559060005260206000209081019282156114f5579160200282015b828111156114f45782518255916020019190600101906114d9565b5b5090506115029190611586565b5090565b828054600181600116156101000203166002900490600052602060002090601f016020900481019282601f1061154757805160ff1916838001178555611575565b82800160010185558215611575579182015b82811115611574578251825591602001919060010190611559565b5b50905061158291906115ab565b5090565b6115a891905b808211156115a457600081600090555060010161158c565b5090565b90565b6115cd91905b808211156115c95760008160009055506001016115b1565b5090565b9056fea165627a7a72305820966d6df97e3e7940aedffa7dba76e022b2f5a7db1c45498fd0a672b851a174090029",
  "source": "pragma solidity ^0.5.0;\n\ncontract AgroModel {\n\n  struct Actor {\n    bytes32 actorId;\n    string name;\n    address accountAddress; // Ethereum address\n    string physicalAddress; // Physical address, may be separated (more costly)\n    // TODO: actor certification? ISO:9001?\n  }\n\n  struct Certification {\n        bytes32 certificationId;\n        string name;\n        string imageUrl;\n        // TODO: certification expiration date\n        //bytes32 certificationActorId; // agency/company behind the certification\n    }\n  \n  struct Product {\n    bytes32 productId;\n    bytes32 latestVersionId;\n    bytes32[] versions;\n    // bytes32[] certificationsIds;\n    \n    address owner;\n    // address nextAuthorizedOwnerAddress;\n\n    // TODO: standard product categories/descriptions\n    // TODO: allow users to set favourite categories based on their industry\n    // TODO: UPC/EAN codes, GS1 categories https://www.gs1.org/gpc/latest\n\n    string name;\n    string description;\n  }\n\n  struct ProductVersion {\n    bytes32 versionId;\n    bytes32 previousVersionId;\n    uint creationDate;\n    address owner; // used to keep track of who owned the product at that version (could be a \"bytes32 actorId\")\n    string latitude;\n    string longitude;\n    string customJsonData;\n  }\n\n\n  /***********************\n      MAPPINGS & STORAGE\n    ***********************/\n\n  mapping (bytes32 => Product) public productIdToProductStruct; // access a product struct directly from an ID\n  bytes32[] public productIds; // access all product IDs\n\n  uint public productsCount;\n\n  mapping (bytes32 => ProductVersion) public versionIdToVersionStruct; // access a version struct from a version ID\n  bytes32[] public productVersionIds; // access all version IDs\n\n\n  mapping (address => bytes32[]) public ownerToProductsId; // access an account's products\n\n  mapping (address => Actor) public actorAddressToActorStruct; // access an actor struct from its Eth address\n  address[] public actorAddresses; // access all actor addresses\n\n  mapping (bytes32 => Certification) public certificationIdToCertificationStruct; // access a version struct from a version ID\n  bytes32[] public certificationIds; // access all version IDs\n\n  // TODO: list of god accounts (mapping? array?)\n  address public godUser;\n  address[] public certifingUsers;\n\n\n  // TODO: handle certifying actors' addresses\n  // (see https://etherscan.io/address/0x06012c8cf97bead5deae237070f9587f8e7a266d#code)\n  mapping (address => bytes32[]) certifiersAddressToCertificationIds; // Certifing Actors to their certifications IDs\n\n\n  /***********************\n      FUNCTIONS\n    ***********************/\n\n\n  function createProduct(\n      string memory _name,\n      string memory _description\n      // string _latitude,\n      // string _longitude,\n      // bytes32[] _certificationsIds,\n      // string _customJsonData\n    ) public returns (bytes32 productId) {\n    \n        // Generate a pseudo-random product ID\n        // from the current time and the sender's address\n        bytes32 newProductId = keccak256(abi.encodePacked(now, msg.sender));\n\n        // Create product\n        // var product = productIdToProductStruct[newProductId];\n\n        productIdToProductStruct[newProductId] = Product(newProductId, '0', new bytes32[](0), msg.sender, _name, _description);\n\n      \n\n        // Define product\n        // product.productId = newProductId;\n        // product.latestVersionId = \"0\"; // temporary value that gets replaced in updateProduct()\n        // product.versions = new bytes32[](0); // empty array at first\n        // product.exists = true;\n        // product.archived = false;\n        // product.owner = msg.sender;\n\n        // product.name = _name;\n        // product.description = _description;\n        // product.certificationsIds = _certificationsIds;\n\n        // Add new product ID\n        productIds.push(newProductId);\n\n        // Add product ID to account\n        ownerToProductsId[msg.sender].push(newProductId);\n\n        productsCount++;\n\n        // Create initial product version\n        // updateProduct(newProductId, _latitude, _longitude, _customJsonData);\n\n        // Fire an event to announce the creation of the product\n        emit ProductCreated(newProductId, msg.sender);\n\n        return newProductId;\n    }\n\n    event ProductCreated(bytes32 newProductId, address indexed owner);\n\n\n    \n\n\n}\n",
  "sourcePath": "/Users/khaledimran/projects/agro/contracts/AgroModel.sol",
  "compiler": {
    "name": "solc",
    "version": "0.5.8+commit.23d335f2.Emscripten.clang"
  },
  "schemaVersion": "3.0.14",
  "updatedAt": "2019-09-20T10:34:27.343Z",
  "devdoc": {
    "methods": {}
  },
  "userdoc": {
    "methods": {
      "createProduct(string,string)": {
        "notice": "********************* FUNCTIONS**********************"
      }
    }
  }
}